:020000040800F2
:10000000884800201D020008210200082302000881
:10001000250200082702000829020008000000004D
:100020000000000000000000000000002B0200089B
:100030002D020008000000002F0200083102000815
:1000400033020008330200083302000833020008BC
:100050003302000833020008ED18000833020008DC
:1000600049190008E5190008811A00083302000840
:10007000330200083302000833020008330200088C
:10008000330200083302000833020008330200087C
:10009000330200083302000833020008330200086C
:1000A000330200083302000833020008330200085C
:1000B00033020008656400083302000833020008B8
:1000C000330200083302000833020008330200083C
:1000D000330200084D6600083302000833020008AE
:1000E000330200083302000833020008330200081C
:1000F000330200083302000833020008330200080C
:1001000033020008330200083302000833020008FB
:100110003302000833020008696500083302000852
:1001200033020008330200083302000833020008DB
:1001300000F002F800F063F80AA090E8000C824496
:100140008344AAF10107DA4501D100F058F8AFF273
:10015000090EBAE80F0013F0010F18BFFB1A43F0A5
:1001600001031847D0920000F092000010F8013B04
:100170000A4413F0030408BF10F8014B1D1108BF17
:1001800010F8015B641E05D010F8016B641E01F8C5
:10019000016BF9D1002D15D010F8014B03F00C03C1
:1001A0000C2BA1EB04040ABF10F8013BA4EB831451
:1001B000A4EB032405F1010314F8016B5B1E01F8A5
:1001C000016BF9D5914238BF10F8013BD1D370478C
:1001D0000023002400250026103A28BF78C1FBD850
:1001E000520728BF30C148BF0B607047782901F023
:1001F0006181002070471FB51FBD10B510BD01F013
:1002000023FA1146FFF7F7FF06F05CFC01F041FA14
:1002100003B4FFF7F2FF03BC06F05AFA08480047A0
:10022000FEE7FEE7FEE7FEE7FEE7FEE7FEE7FEE7A6
:10023000FEE7FEE703480449024A044B704700000A
:1002400031010008884400208848002088440020AC
:100250002DE9F04F4FF0000C4FF0000301EB9C5ED6
:10026000BEF90250BEF900400EF5806EBEF9029054
:10027000BEF900800EF5806EBEF90270BEF9006016
:100280000EF5806EBEF902B0BEF900A00EF5806ECC
:10029000D044D944A8EB4A0AA9EB4B0B4FEAA4047B
:1002A0004FEAA50504EBA60405EBA705A4EB66063B
:1002B000A5EB670704EBA80405EBA905A4EB680808
:1002C000A5EB690906EBAB06A7EBAA07A6EB6B0B40
:1002D00007EB6A0A458020F8044B478020F8046B3E
:1002E000A0F8029020F8048BA0F802A020F804BB2C
:1002F00003F1010393FAA3FCB3F5807FAED1A0EB29
:1003000082014FF0100312090FF2341000F10000C7
:1003100006B403EB430C6144A2F5803202EB833256
:10032000B1F90250B1F90040A1EB0301B0F902B0FC
:10033000B0F900A000F10400A5EB040E0EFB0BFCCD
:100340000AEB4B0E05FB0ACB04FB0ECAB1F90250B7
:10035000B1F90040A1EB0301B0F90290B0F90080BF
:1003600000F10400A5EB040E0EFB09FC08EB490E9E
:1003700005FB08C904FB0EC8B1F90250B1F90040F1
:10038000A1EB0301B0F90270B0F9006000F10400C4
:10039000A5EB040E0EFB07FC06EB470E05FB06C79C
:1003A00004FB0EC6B1F90250B1F9004001F10001A1
:1003B000D044D944A8EB4A0AA9EB4B0B4FEAA4045A
:1003C0004FEAA50504EB264405EB2745A4EBE636EA
:1003D000A5EBE73704EB284405EB2945A4EBE83807
:1003E000A5EBE93906EB2B46A7EB2A47A6EBEB3B3F
:1003F00007EBEA3A4D800C8019444F800E80194477
:10040000A1F80290A1F800801944A1F802A021F8F7
:1004100004BBB2F5803283DA03EB430C6144A2F1F2
:1004200001025FEA024E18BFA0EB0C007FF476AF2A
:1004300006BC4FEA830392087FF46AAFBDE8F08FF1
:100440000040000000400000004000005DDD213B56
:10045000A3227E180000412D7EA5412D0000412DD4
:1004600000C000405DDD82E75DDD213B7EA5412DC2
:10047000004000000040000000400000AA2A941242
:100480006B39460649327C0CA8118E2349327C0C0C
:10049000A3227E1821F77931AA2A9412A8118E235B
:1004A0005DDD213BA3227E180000412D95C6B13FA2
:1004B000461A2B1E58EE3735BEB4C53EA8118E2302
:1004C0005DDD213B63A97138DF089A28B7CDC53EB1
:1004D0007EA5412D0000412D00C0004063A92B1EC8
:1004E00021F77931BEB4C53EBEB47C0C58EE373529
:1004F00061AC213B95C6BAF9BAE571383BA73735EF
:100500005DDD82E75DDD213B7EA5412D21F766D7CC
:1005100056D53F3D3BA78E23A811C9CAB7CDC53ECE
:1005200061AC7E18AA2AC1C295C6B13FBEB47C0C8C
:100530000040000000400000004000001E3BB504E9
:10054000693E9201C83C2403EB356409C83C24038E
:100550006B3946066C30060E1E3BB504EB3564095C
:10056000AA2A94126B39460649327C0CAE2409172C
:10057000AF37D607882E8D0F7E1E5D1BEB356409C5
:10058000AA2A941224188C1F1E34F10AB32690153F
:10059000A8118E2349327C0CA3227E18140B6027ED
:1005A0006C30060E7E1E5D1B7104FB2A882E8D0F9B
:1005B000461A2B1EC7FD5A2E9D2C1211FE15E72040
:1005C00021F77931AA2A9412A8118E2387F0533487
:1005D000B2281314480D202602EAE536B3269015FA
:1005E000DF089A289CE32B39AE2409177104FB2AF3
:1005F0005DDD213BA3227E180000412D4ED7C53C76
:100600009320EF198FFB6C2F78D1153E7E1E5D1B5A
:1006100021F77931E2CB0F3F641CC61CB8F2683376
:1006200095C6B13F461A2B1E58EE373597C1FB3F92
:1006300024188C1F02EAE536F0BCEC3FFE15E720DB
:10064000BAE57138A6B8853FD5133D2282E1DB3982
:10065000BEB4C53EA8118E235DDD213B40B1AF3D48
:10066000790FDA244DD9423C2EAE423C480D20266B
:1006700056D53F3D8EAB823A140B602778D1153E9C
:1006800063A97138DF089A28B7CDC53EB1A71236E5
:10069000A906CE2915CA4F3F78A668337104FB2AF4
:1006A00095C6B13FBCA576303902212C38C3EC3F4A
:1006B0007EA5412D0000412D00C00040BCA5CE29E3
:1006C000C7FD5A2EF0BCEC3F78A620268FFB6C2F7E
:1006D00009BAB13FB1A73D2257F976304DB74F3F28
:1006E00063A92B1E21F77931BEB4C53E8EABEF193D
:1006F000ECF474325EB2153E2EAE9015B8F268334B
:100700002DB03F3D40B1121187F053342EAE423C24
:10071000BEB47C0C58EE373561AC213BA6B8D60789
:100720002BEC1236C8AADB39F0BC240302EAE5360A
:1007300063A9713897C16EFEDCE7B03734A8E5369F
:1007400095C6BAF9BAE571383BA73735E2CB0FF554
:100750009CE32B3978A6683378D173F082E1DB39DA
:10076000EDA579314ED7EDEB6DDF823A99A56C2F6F
:100770005DDD82E75DDD213B7EA5412D9CE33AE313
:1007800052DBB63B99A5FB2A02EA19DF4DD9423C60
:10079000EDA59A2887F026DB4ED7C53C78A6202603
:1007A00021F766D756D53F3D3BA78E23C7FDDFD344
:1007B00063D3AF3D34A8E720710494D078D1153EBF
:1007C00063A92B1E140B8CCD94CF723EC8AA5D1B5F
:1007D000A811C9CAB7CDC53E61AC7E18241850C84F
:1007E000E2CB0F3F2EAE90157E1E25C615CA4F3F99
:1007F0002DB09412AE244AC451C8853F5EB28D0F0D
:10080000AA2AC1C295C6B13FBEB47C0C6C308EC161
:10081000E2C4D43F4DB76409EB35B1C038C3EC3FF7
:1008200009BA46061E3B2CC097C1FB3FF0BC24030F
:10083000004000000040000000400000D03E2E01BB
:100840009B3F6500363FC9009A3D5B02363FC900B9
:10085000693E92015F3C8803D03E2E019A3D5B02C7
:100860001E3BB504693E9201C83C2403D939E20518
:10087000023EF701F43BED038E380E079A3D5B0212
:100880001E3BB5043F373908313DC002463A7E056C
:10089000EB356409C83C24036B39460692348E0A52
:1008A0005F3C88038E380E073433B70BF43BED03FF
:1008B000AF37D607D231DF0C8A3B5104CE369D08C4
:1008C0006C30060E1E3BB504EB356409022F2B0F6E
:1008D000B23A1A0505352B0A932D5010463A7E057B
:1008E0001E34F10A212C7311D939E2053433B70BC8
:1008F000AA2A94126B39460649327C0C3129B4136A
:10090000FD38AA065B31410DB327D2148E380E078D
:100910006C30060E3226EE151F3872077B2FCA0E7A
:10092000AE240917AF37D607882E8D0F262321183E
:100930003F373908932D50109C213719CE369D082A
:100940009D2C12110E204B1A5D360109A42BD311D8
:100950007E1E5D1BEB356409AA2A9412EB1C6C1CED
:100960007835C709AF295413561B791D05352B0A55
:10097000B2281314BE19841E92348E0AB327D214DF
:1009800024188C1F1E34F10AB32690158816912066
:10099000A933540BB1254C16EA1493213433B70B09
:1009A000AE2409174A139222BF321A0CA923C41786
:1009B000A8118E2349327C0CA3227E1805108824AE
:1009C000D231DF0C9C213719610E7E255B31410D40
:1009D0009320EF19BB0C7126E430A40D891FA71AD0
:1009E000140B60276C30060E7E1E5D1B6D094C28B3
:1009F000F42F680E721D121CC40735297B2FCA0EF6
:100A0000641CC61C1B061A2A022F2B0F561B791DAD
:100A10007104FB2A882E8D0F461A2B1EC702D82B75
:100A20000E2EEE0F3519DC1E1C01B22C932D50102A
:100A300024188C1F72FF882D182DB11011173A2021
:100A4000C7FD5A2E9D2C1211FE15E7201DFC282FE4
:100A5000212C7311EA14932173FAF22FA42BD311D2
:100A6000D5133D22CAF8B830282B3412BF12E72222
:100A700021F77931AA2A9412A8118E2379F53632FA
:100A80002D2AF41291103524D2F3EF32AF295413EA
:100A9000790FDA242CF2A3333129B413610E7E25A9
:100AA00087F05334B2281314480D2026E3EEFF34A8
:100AB000332873142E0CC12641EDA535B327D2146B
:100AC000140B6027A1EB483633273115FA09FE27AE
:100AD00002EAE536B3269015DF089A2865E87E37E6
:100AE0003226EE15C4073529CBE61238B1254C164F
:100AF000A906CE2932E5A1382F25AB168D05652A2A
:100B00009CE32B39AE2409177104FB2A08E2B039A3
:100B10002B24661755038F2B77E0303AA923C4178F
:100B20003902212CE9DEAB3A262321181C01B22C14
:100B30005DDD213BA3227E180000412DD5DB923BD9
:100B40001F22DB18E4FECF2D4FDAFD3B9C21371925
:100B5000C7FD5A2ECDD8643C17219319ABFCE42E67
:100B60004ED7C53C9320EF198FFB6C2FD3D5213D79
:100B70000E204B1A73FAF22F5CD4783D891FA71A06
:100B800057F97630E8D2C93D041F021B3CF8F93012
:100B900078D1153E7E1E5D1B21F779310CD05C3E6D
:100BA000F81DB81B06F6F831A5CE9D3E721D121C2D
:100BB000ECF4743241CDD83EEB1C6C1CD2F3EF3216
:100BC000E2CB0F3F641CC61CB8F2683388CA403FB2
:100BD000DD1B201D9FF1DF3332C96B3F561B791D92
:100BE00087F05334E1C7913FCE1AD31D6FEFC6345F
:100BF00095C6B13F461A2B1E58EE37354EC5CC3F31
:100C0000BE19841E41EDA5350CC4E13F3519DC1E2B
:100C10002BEC1236CFC2F13FAD18341F16EB7D36E8
:100C200097C1FB3F24188C1F02EAE53665C00040DF
:100C30009B17E31FEFE84B3738BFFF3F11173A20F0
:100C4000DCE7B03711BEF83F88169120CBE61238AA
:100C5000F0BCEC3FFE15E720BAE57138D4BBDB3FB2
:100C600074153D21AAE4CF38BFBAC43FEA149321DA
:100C70009CE32B39AFB9A73F5F14E8218EE284399A
:100C8000A6B8853FD5133D2282E1DB39A2B75D3F8F
:100C90004A13922277E0303AA5B6303FBF12E722DE
:100CA0006DDF823AAFB5FD3E34123B2364DED33AAA
:100CB000BEB4C53EA8118E235DDD213BD5B3883E71
:100CC0001D11E22357DC6D3BF2B2453E91103524F5
:100CD00052DBB63B15B2FC3D051088244FDAFD3BD4
:100CE00040B1AF3D790FDA244DD9423C71B05B3D44
:100CF000ED0E2C254DD8853CA9AF033D610E7E2518
:100D00004ED7C53CE8AEA53CD40DCF2551D6033D0A
:100D10002EAE423C480D202656D53F3D7BADDA3BFA
:100D2000BB0C71265CD4783DD0AC6D3B2E0CC1263B
:100D300063D3AF3D2BACFA3AA10B11276DD2E33D43
:100D40008EAB823A140B602778D1153EF8AA063A8A
:100D5000870AAF2785D0453E6AAA8439FA09FE275B
:100D600094CF723EE3A9FD386D094C28A5CE9D3E77
:100D700063A97138DF089A28B7CDC53EEBA8E137E3
:100D80005208E728CCCCEB3E7BA84B37C40735296B
:100D9000E2CB0F3F12A8B13636078129FBCA303F9C
:100DA000B1A71236A906CE2915CA4F3F57A76E35EF
:100DB0001B061A2A32C96B3F05A7C6348D05652A62
:100DC00051C8853FBBA61934FF04B02A72C79C3FA7
:100DD00078A668337104FB2A95C6B13F3EA6B232AD
:100DE000E303452BBAC5C43F0BA6F83155038F2B3F
:100DF000E2C4D43FE0A53931C702D82B0CC4E13F8F
:100E0000BCA576303902212C38C3EC3FA1A5AF2F09
:100E1000AA016A2C66C2F53F8DA5E42E1C01B22CF6
:100E200097C1FB3F81A5152E8E00FA2CCAC0FF3F4B
:100E30007EA5412D0000412D00C0004081A56A2CF7
:100E400072FF882D38BFFF3F8DA58F2BE4FECF2D7D
:100E500073BEFB3FA1A5B02A56FE152EB0BDF53FCF
:100E6000BCA5CE29C7FD5A2EF0BCEC3FE0A5E72873
:100E700039FD9F2E32BCE13F0BA6FE27ABFCE42ED2
:100E800077BBD43F3EA611271DFC282FBFBAC43F15
:100E900078A620268FFB6C2F09BAB13FBBA62C2564
:100EA00001FBAF2F56B99C3F05A7352473FAF22FEB
:100EB000A6B8853F57A73B23E5F93430F8B76B3F19
:100EC000B1A73D2257F976304DB74F3F12A83D21CB
:100ED000CAF8B830A5B6303F7BA83A203CF8F930C4
:100EE00000B60F3FEBA8341FAEF739315EB5EB3ECD
:100EF00063A92B1E21F77931BEB4C53EE3A9201D9D
:100F000093F6B93122B49D3E6AAA121C06F6F83156
:100F100088B3723EF8AA021B79F53632F2B2453E2A
:100F20008EABEF19ECF474325EB2153E2BACDB18CD
:100F30005FF4B232CDB1E33DD0ACC417D2F3EF329F
:100F400040B1AF3D7BADAB1645F32C33B5B0783D2A
:100F50002EAE9015B8F268332DB03F3DE8AE731455
:100F60002CF2A333A9AF033DA9AF54139FF1DF3394
:100F700028AFC53C71B0341213F11934A9AE853CC9
:100F800040B1121187F053342EAE423C15B2EE0F31
:100F9000FBEF8D34B6ADFD3BF2B2CA0E6FEFC63437
:100FA00041ADB63BD5B3A40DE3EEFF34D0AC6D3B01
:100FB000BEB47C0C58EE373561AC213BAFB5540B59
:100FC000CCED6E35F6ABD33AA5B62B0A41EDA5357F
:100FD0008EAB823AA2B70109B6ECDC3529AB303AC8
:100FE000A6B8D6072BEC1236C8AADB39AFB9AA06C9
:100FF000A1EB48366AAA8439BFBA7E0516EB7D3666
:101000000FAA2B39D4BB51048CEAB136B7A9CF381B
:10101000F0BC240302EAE53663A9713811BEF7017A
:1010200078E9183712A9123838BFC900EFE84B37F2
:10103000C5A8B03765C09BFF65E87E377BA84B37F6
:1010400097C16EFEDCE7B03734A8E536CFC240FD6D
:1010500053E7E137F1A77D360CC413FCCBE6123819
:10106000B1A712364EC5E6FA42E6423874A7A53556
:1010700095C6BAF9BAE571383BA73735E1C78EF89E
:1010800032E5A13805A7C63432C963F7AAE4CF38E0
:10109000D3A6533488CA39F623E4FD38A4A6DF3337
:1010A000E2CB0FF59CE32B3978A6683341CDE6F30C
:1010B00015E3583950A6EF32A5CEBFF28EE284393F
:1010C0002CA674320CD098F108E2B0390BA6F83196
:1010D00078D173F082E1DB39EDA57931E8D24FEFB9
:1010E000FCE0063AD3A5F9305CD42DEE77E0303A37
:1010F000BCA57630D3D50CEDF2DF593AA9A5F22F75
:101100004ED7EDEB6DDF823A99A56C2FCDD8CFEAA3
:10111000E9DEAB3A8DA5E42E4FDAB4E964DED33ACA
:1011200085A55A2ED5DB9AE8E1DDFA3A7FA5CF2DC9
:101130005DDD82E75DDD213B7EA5412DE9DE6DE6CB
:10114000DADC473B7FA5B22C77E059E557DC6D3BF5
:1011500085A5212C08E248E4D5DB923B8DA58F2B99
:101160009CE33AE352DBB63B99A5FB2A32E52DE23C
:10117000D1DADA3BA9A5652ACBE624E14FDAFD3BBB
:10118000BCA5CE2965E81DE0CED9203CD3A53529E4
:1011900002EA19DF4DD9423CEDA59A28A1EB18DEF1
:1011A000CDD8643C0BA6FE2741ED19DD4DD8853C1A
:1011B0002CA66027E3EE1EDCCDD7A53C50A6C126A9
:1011C00087F026DB4ED7C53C78A620262CF231DAF4
:1011D000CFD6E43CA4A67E25D2F33FD951D6033D19
:1011E000D3A6DA2479F551D8D3D5213D05A73524E6
:1011F00021F766D756D53F3D3BA78E23CAF87FD649
:10120000D8D45B3D74A7E72273FA9BD55CD4783DB4
:10121000B1A73D221DFCBBD4DFD3933DF1A79321A1
:10122000C7FDDFD363D3AF3D34A8E72072FF06D3F9
:10123000E8D2C93D7BA83A201C0131D26DD2E33DF2
:10124000C5A88C1FC70261D1F2D1FC3D12A9DC1EDA
:10125000710494D078D1153E63A92B1E1B06CCCF08
:10126000FED02D3EB7A9791DC40707CF85D0453ED6
:101270000FAAC61C6D0947CE0CD05C3E6AAA121C90
:10128000140B8CCD94CF723EC8AA5D1BBB0CD4CC82
:101290001CCF883E29ABA71A610E21CCA5CE9D3E5E
:1012A0008EABEF19051073CB2ECEB13EF6AB3719CE
:1012B000A811C9CAB7CDC53E61AC7E184A1324CA6D
:1012C00041CDD83ED0ACC417EA1483C9CCCCEB3E98
:1012D00041AD09178816E8C857CCFD3EB6AD4C168F
:1012E000241850C8E2CB0F3F2EAE9015BE19BEC7D2
:1012F0006ECB203FA9AED214561B31C7FBCA303F7C
:1013000028AF1314EB1CA8C688CA403FA9AF5413DA
:101310007E1E25C615CA4F3F2DB094120E20A7C5BC
:10132000A3C95D3FB5B0D3119C212DC532C96B3F18
:1013300040B112112623B9C4C1C8783FCDB15010B5
:10134000AE244AC451C8853F5EB28D0F3226E0C339
:10135000E1C7913FF2B2CA0EB3277BC372C79C3F6D
:1013600088B3060E31291CC303C7A73F22B4410D21
:10137000AA2AC1C295C6B13FBEB47C0C212C6DC255
:1013800027C6BB3F5EB5B70B932D1DC2BAC5C43F80
:1013900000B6F10A022FD3C14EC5CC3FA5B62B0A29
:1013A0006C308EC1E2C4D43F4DB76409D2314FC115
:1013B00076C4DB3FF8B79D08343315C10CC4E13F58
:1013C000A6B8D6079234E0C0A1C3E73F56B90E07CE
:1013D000EB35B1C038C3EC3F09BA46063F3788C089
:1013E000CFC2F13FBFBA7E058E3864C066C2F53FFA
:1013F00077BBB504D93945C0FEC1F83F32BCED0317
:101400001E3B2CC097C1FB3FF0BC24035F3C19C0BE
:1014100030C1FD3FB0BD5B029A3D0BC0CAC0FF3F6B
:1014200073BE9201D03E03C065C0004038BFC90002
:10143000704700000FB4044910B503AA029800F0E9
:10144000CDF810BC5DF814FB401300202DE9F041ED
:101450000E460446002020622046E168884730B3EB
:10146000252805D0D4E901219047206A401CF2E7E5
:10147000E168204600278847050018D0A5F1410003
:10148000192802D820354FF40067324629462046F5
:101490002760FEF7ABFE40B1012804D0F61D26F010
:1014A00007060836D8E7361DD6E72846DAE7206A69
:1014B000BDE8F08170B504460D4621461068AFF3D3
:1014C00000802188090502D50F4A7A4402E00E4ABD
:1014D0007A440E32002104F1240305E000F00F06E7
:1014E0000009965D5E54491C0028F7D1207800233E
:1014F000000704D5702D02D009B102231132204615
:10150000BDE8704000F011B83C7F000070477047A4
:101510007047704710B500F073F8006810BD10B543
:10152000044600F06DF8046010BD2DE9F0470D464B
:1015300099469246044600F124080168880604D5BD
:10154000E06921F01001216000E00120A84201DDE6
:10155000471B00E00027A1697A1902EB0900081A6D
:10156000A0612078C00602D42046AFF30080002698
:1015700008E0D4E901211AF806009047206A401CCF
:10158000761C20624E45F4DB2078C0060AD5204642
:10159000AFF3008006E0D4E9012130209047206AB3
:1015A000401C2062381EA7F10107F4DC07E0D4E9F3
:1015B000012118F805009047206A401C2062281E6F
:1015C000A5F10105F3DC2046AFF30080207800068A
:1015D00002D50220BDE8F0870120FBE7074B70B57C
:1015E0000D467B4400F015F80446284600F024F828
:1015F00010B14FF0FF3070BD204670BDD7520000D3
:10160000004870472444002001694A1C02610878A0
:10161000704700B58FB0CDE9013100210591054932
:101620007944CDE9031011466846FFF70FFF0FB06C
:1016300000BD0000E5FFFFFF007B00F08000704769
:1016400000487047244400207546FFF7F9FFAE4676
:1016500005006946534620F00700854618B020B5BE
:10166000FEF7E8FDBDE820404FF000064FF0000710
:101670004FF000084FF0000B21F00701AC46ACE83A
:10168000C009ACE8C009ACE8C009ACE8C0098D46A7
:10169000704710B50446AFF300802046BDE8104007
:1016A000FEF7B6BD4C48806940F004004A498861A5
:1016B0004A48006820F0F0004849086046488069C0
:1016C00040F40070444988610846C06840F40070E6
:1016D000C8600846C06820F40070C86008464068CA
:1016E00020F4404048600846406840F400404860AC
:1016F0003B4800683B490840394908600846006893
:1017000008600846006820F480700860081D0068C2
:1017100020F00200091D08600846006820F46020DF
:1017200008600846006840F46020086008460068C9
:1017300040F4801008600846006820F400600860EB
:101740000846006840F4000008602548283000681A
:1017500020F47000224928310860084600680860BB
:101760001F480C30006820F003001D490C31086050
:101770000846006840F038000860081F006820F440
:10178000E010091F08600846006840F4E010086097
:10179000081F006840F00100091F08600846006843
:1017A00040F00800086000BF0D48001D006800F010
:1017B00008000028F8D10A48001D006840F0040025
:1017C0000749091D086000BF0548001D006800F0BA
:1017D00004000028F8D170470010024000080140C2
:1017E00004240140FFFFF0000A48806940F008002F
:1017F000084988610848006820F00F000649086021
:101800000846006840F003000860002003490860B3
:101810007047000000100240040C0140A0812142EA
:101820001948806940F00400174988610846C0697A
:1018300040F00050C8611548006820F4702013493A
:1018400008600846006808601148006840F0010020
:101850000F4908600846006840F00200086008462A
:10186000006808600846006808600846006808606C
:1018700008460068086008460068086000200449BF
:101880000831086070470000001002400008014065
:10189000007400402DE9F0470446204606F010F899
:1018A00081460F49484605F011FF81464FF08B41B4
:1018B000484606F04DF8824605F06EFE07464FF0AA
:1018C0006632084B05F0ECFA054605F0B7FA81469A
:1018D000484605F0BDFF04490860BDE8F0870000F8
:1018E00000007A4466660A400874004010B50A2079
:1018F00004F0A8FF1148006801281BD110480078A7
:10190000012803D102200E4908700EE00C4800782F
:10191000022803D103200A49087006E0084800782D
:10192000032802D101200649087000BF034800685F
:101930000128FBD001200349086010BD00012142AD
:10194000341300201404014010B50A2004F07AFF7B
:1019500020480068002839D11F480088B0F5C37FAF
:1019600003D19C201C49088027E01B4800889C2844
:1019700003D14E20184908801FE0174800884E28E0
:1019800003D127201449088017E01348008827282E
:1019900003D11A20104908800FE00F4800881A2848
:1019A00003D113200C49088007E00B480088132856
:1019B00003D14FF4C37008490880074800880749DD
:1019C000888500BF034800680128FBD00420044933
:1019D000086010BD080123423613002000100040AB
:1019E000140401401CB50A2004F02CFF1C480068B8
:1019F00090BB1C480078012815D11B4800884FF681
:101A0000FE7108401849088000201649087017A088
:101A100010210B46C822CDE9001008214FF4867032
:101A200004F0C0FB13E01048008840F001000E49AC
:101A3000088001200B4908700EA010210B46C82217
:101A4000CDE9001008214FF4867004F0ABFB00BF15
:101A5000034800680028FBD00820084908601CBD26
:101A60000C012342121300200004004053544F5035
:101A700020200000574F524B00000000140401408A
:101A800008B50A2004F0DEFE2948006800284BD182
:101A90001F202849088028480078401C26490870E3
:101AA00008460078012806D16420244908800A20CD
:101AB0002349088024E020480078022806D10A2023
:101AC0001E49088064201E49088019E01A480078E1
:101AD000032807D10220194908804FF4FA701849E9
:101AE00008800DE014480078042809D14FF47A707A
:101AF0001249088001201249088000200E49087010
:101B00001020032300900E480288DC2140F20910C7
:101B100004F0FEFA09480088401E0A49088000BF08
:101B2000034800680028FBD010200749086008BD62
:101B30001001234246130020101300200013002040
:101B4000021300202C0400401404014010B500F0E2
:101B500059F902220021084600F028F8012202214A
:101B6000042000F023F801220321042000F01EF8D5
:101B700001220421084600F019F80223062203215D
:101B8000184604F0CDFB022308221946184604F03B
:101B9000C7FB022309220121184604F0C1FB0223DE
:101BA0000A220021184604F0BBFB10BD70B50446A4
:101BB0000B46CE1701EB9676C6F38700CE1701EBE6
:101BC0009676B610A1EB8606B606350E1C4B9B69C1
:101BD00043F001031A4EB3614FEAB63353F8203095
:101BE0000F26AE40B343174E46F82030334653F825
:101BF000203004FA05F61E43124B43F82060124BC6
:101C00001B6801268E4033430F4E336002F0010300
:101C100043B10D4B0C331B6801268E4033430A4EF3
:101C20000C36336002F0020343B1074B08331E68E1
:101C300001238B401E43044B08331E6070BD00001F
:101C40000010024008000140000401402DE9F04F5F
:101C500085B000200490019001904FF480624F49BC
:101C60004F48FEF7F5FA01242EE04D4931F82410D3
:101C700008B205F00DFE0390494951F824100814EC
:101C800005F006FE02900299084605F061FE8346C3
:101C90000399084605F05CFE5946009005F0A8FC43
:101CA000824605F079FC074605F034F8054605F054
:101CB000C5F881464846019905F016FF02D2CDF8D5
:101CC00004900494601C84B2B4F5007FCDDB3548E9
:101CD0000088B0F57A7F11D1049805F066FA824643
:101CE0000022314B05F0DCF8054600222F4B05F0B1
:101CF0006FFA074605F02CFA2D490860294800883C
:101D0000642811D1049805F050FA07460022264BAA
:101D100005F0C6F805460022264B05F059FA824622
:101D200005F016FA224908601E4800880A2811D1D9
:101D3000049805F03AFA074600221B4B05F0B0F86C
:101D4000054600221C4B05F043FA824605F000FAD6
:101D50001749086013480088022811D1049805F03B
:101D600024FA05460022104B05F09AF80746002297
:101D7000124B05F02DFA824605F0EAF90C4908608D
:101D80001020052300900A48B921026840F209108A
:101D900004F0BEF905B0BDE8F08F00004C23002030
:101DA0004C330020001300200000904000408F4082
:101DB00004130020008DC3408076F840007D0E4162
:101DC00001460F48006820F01F000D4A10601046C1
:101DD0000068084310600A482C38006840F480000E
:101DE000074A2C3A106000BF05483438006800F0FC
:101DF00002000028F8D002481830006880B270470E
:101E0000342401401548806940F00400134988617A
:101E10000846806940F0400088611148006820F061
:101E20000F000F4908600846006840F0080008608D
:101E30000C4800680C4908400A49086008460068D8
:101E40000A4908430749086006480C30006840F01A
:101E50001C0004490C31086070470000001002406B
:101E60000008014000180140FF00F0FF0088080052
:101E700070B5044600261748058840884543154834
:101E8000808846F60401884216D1124880790128DC
:101E900012D100200F4988712A2048812B20888187
:101EA0000021084603F0CCFF01200A4988712B204D
:101EB00048812A20888103E00021084603F0C0FF02
:101EC00004F0B0F9002602E003480480761CAE421C
:101ED000FAD370BD144400200008006C10B504460D
:101EE000002C66D16C498871F02008804FF4A070F6
:101EF00048800846808849F2413188420BD06648C4
:101F0000808846F60401884205D06348808845F2FF
:101F1000103188421AD12C205F4908812A2048813B
:101F20002B2088810846808846F60401884205D027
:101F30005948808845F21031884206D14FF4A0708C
:101F4000554908804FF4F0704880A1E052488088DD
:101F500045F21051884210D14FF430504E4908815B
:101F60004FF4285048814FF42C5088814FF4F07082
:101F700008804FF4487048808AE04748808841F6DE
:101F8000631188420DD12C20434908812B204881C0
:101F90002A2088814FF4F07008804FF44870488000
:101FA00076E022203C490881202048812120888138
:101FB0006EE00120384988714FF4A0700880F0204D
:101FC00048800846808849F24131884205D032482D
:101FD000808845F21031884207D12C202E49088193
:101FE0002A2048812B2088813FE02B48808846F6B4
:101FF0000401884207D12C20274908812B204881E1
:102000002A20888131E02448808845F21051884296
:1020100010D14FF43050204908814FF428504881A6
:102020004FF42C5088814FF4487008804FF4F070C2
:1020300048801AE01848808841F6631188420DD123
:102040002C20154908812A2048812B2088814FF4B3
:10205000487008804FF4F070488006E022200E4956
:10206000088121204881202088810B48808846F6FD
:102070000401884205D00848808845F21031884222
:1020800006D14FF4F070044908804FF4A0704880E6
:10209000002003F05FFD10BD144400202DE9FF4F28
:1020A00084B081468A460020039002900698A0EBF7
:1020B00009050798A0EB0A06CDF80490CDF800A01A
:1020C000002D01DD012705E00DB9002702E04FF0EA
:1020D000FF376D42002E02DD4FF0010806E016B911
:1020E0004FF0000802E04FF0FF387642B54201DDC4
:1020F0002C4600E034464FF0000B21E0009A91B2EC
:10210000019A90B200F022F80398284403900298B4
:10211000304402900398A04205DD0398001B039011
:102120000198384401900298A04205DD0298001BF6
:1021300002900098404400900BF101001FFA80FBD0
:10214000601C8345DADD08B0BDE8F08F30B5044689
:102150000D462946204603F073FE04F063F802485A
:1021600000880249088030BD461300200008006C3A
:1021700030B503460C4615465A48808849F241312D
:10218000884205D05748808845F21031884214D1E2
:102190005449488904F040F8181204F037F8D8B2CE
:1021A00004F034F84F49888904F036F8201204F01E
:1021B0002DF8E0B204F02AF88CE04A48808845F215
:1021C0001051884220D14749488904F025F8181257
:1021D00004F01CF843494989491C88B204F01CF8F2
:1021E000D8B204F013F83F49888904F015F820129A
:1021F00004F00CF83B498989491C88B204F00CF8BA
:10220000E0B204F003F865E03648808841F66311D7
:10221000884228D13348807920B932480088401E4E
:10222000C01A83B22F49488903F0F6FF181203F051
:10223000EDFFD8B203F0EAFF181203F0E7FFD8B2BF
:1022400003F0E4FF2749888903F0E6FF201203F03A
:10225000DDFFE0B203F0DAFF201203F0D7FFE0B2B7
:1022600003F0D4FF36E01F48808846F60401884218
:102270001DD11C488079012804D11A480088401ECD
:10228000C01A83B21749488903F0C6FF181203F039
:10229000BDFFD8B203F0BAFF1249888903F0BCFF32
:1022A000201203F0B3FFE0B203F0B0FF12E00D48DC
:1022B0008079012804D10B480088401EC01A83B2DF
:1022C00008494889194603F0B7FF0649888921461D
:1022D00003F0B2FF0348008903490880881C058089
:1022E00030BD000014440020FE07006C10B5FD480E
:1022F000406940F48070FB4948610846806940F0BD
:10230000080088610846806940F02000886108461E
:10231000806940F0400088610846806940F4807020
:102320008861F148006820F00F00EF490860084616
:10233000006840F003000860EC480068EC49084081
:10234000EA49086008460068EA490843E749086026
:10235000081F006800F0FF20091F08600846006899
:1023600040F0BB100860E44800680020E2490860C3
:102370000846006840F0BB300860081F006820F085
:102380007040091F08600846006840F0304008604F
:10239000DA48406820F47020D84948600846406810
:1023A00040F4302048600846006820F00F000860C4
:1023B0000846006840F00B00086000204FF0204104
:1023C0008861C861CE4908604FF02040806940F4C0
:1023D00080504FF0204188610846806940F4804079
:1023E00088610846806940F0100088610846C0692D
:1023F000C8610846C06940F00100C8610846C0696C
:1024000040F47060C861BE480068C1F81C01BC4857
:102410000068C1F81C010846D0F81C0140F4407067
:10242000C1F81C010846806940F001008861322033
:1024300004F008FA002003F057FBB24988800846F0
:102440008088FF280ADB084680884FF6FF718842A3
:1024500004D0AC488088B0F5134F7CD1D32003F072
:10246000DBFE03F037FBA749888003F033FBA54967
:10247000888003F02FFBA3498880084680884FF6A8
:10248000FF7101EA00209F49888003F023FB9D49EA
:10249000898808439B4988800846808849F24131F1
:1024A000884258D0BF2003F0B7FE03F013FB9549D4
:1024B000888003F00FFB9349888003F00BFB914960
:1024C000888003F007FB8F498880084680884FF694
:1024D000FF7101EA00208B49888003F0FBFA8949EB
:1024E00089880843874988800846808846F6040121
:1024F00088427AD0D42003F08FFE03F0EBFA8149B2
:10250000888003F0E7FA7F49888003F0E3FA7D4989
:102510008880084680884FF6FF7101EA00207949DB
:10252000888003F0D7FA77498988084375498880FD
:102530000846808845F21031884256D04FF45A4000
:1025400003F06AFE03F0C6FA6E4988804FF45B40E0
:1025500003F062FE00E048E003F0BCFA69498880BD
:10256000084680884FF6FF7101EA0020654988809F
:102570004FF45C4003F050FE03F0ACFA61498988E7
:1025800008436049888008468088B0F5004F02D132
:1025900045F2105088805B48808845F2105188428F
:1025A00023D0A12003F038FE03F094FA5549888027
:1025B00003F090FA53498880084680884FF6FF71EF
:1025C00001EA00204F49888003F084FA4D49898848
:1025D00008434C4988800846808845F261718842EA
:1025E00003D141F66310474988804648818846A058
:1025F000FEF720FF4348808849F24131884270D17C
:10260000CF2003F009FE002003F000FEC12003F0FC
:10261000FDFD302003F0FAFDED2003F0FDFD642008
:1026200003F0F4FD032003F0F1FD122003F0EEFDB2
:10263000812003F0EBFDE82003F0EEFD852003F0A0
:10264000E5FD102003F0E2FD7A2003F0DFFDCB2052
:1026500003F0E2FD392003F0D9FD2C2003F0D6FD74
:10266000002003F0D3FD342003F0D0FD022003F05E
:10267000CDFDF72003F0D0FD202003F0C7FDEA20B8
:1026800003F0CAFD002003F0C1FD002003F0BEFDF1
:10269000C02003F0C1FD1B2003F0B8FDC12003F0F2
:1026A000BBFD012003F0B2FDC52003F0B5FD3020D5
:1026B00003F0ACFD302003F0A9FDC72003F0ACFD12
:1026C000B72003F0A3FD362003F0A6FD482003F059
:1026D0009DFD3A2003F0A0FD552003F097FDB120A9
:1026E0001AE0BFE000100240000C01400414014059
:1026F00000F0FF00BB0B00BB0418014000200140AC
:102700001C0100A014440020204C43442049443ABA
:1027100025780D0A0000000003F07EFD002003F084
:1027200075FD1A2003F072FDB62003F075FD0A2036
:1027300003F06CFDA22003F069FDF22003F06CFDB4
:10274000002003F063FD262003F066FD012003F066
:102750005DFDE02003F060FD0F2003F057FD2A200F
:1027600003F054FD282003F051FD082003F04EFD36
:102770000E2003F04BFD082003F048FD542003F029
:1027800045FDA92003F042FD432003F03FFD0A2050
:1027900003F03CFD0F2003F039FD002003F036FD6F
:1027A000002003F033FD002003F030FD002003F093
:1027B0002DFDE12003F030FD002003F027FD152062
:1027C00003F024FD172003F021FD072003F01EFD78
:1027D000112003F01BFD062003F018FD2B2003F051
:1027E00015FD562003F012FD3C2003F00FFD0520DF
:1027F00003F00CFD102003F009FD0F2003F006FD8F
:102800003F2003F003FD3F2003F000FD0F2003F005
:10281000FDFC2B2003F000FD002003F0F7FC00205E
:1028200003F0F4FC012003F0F1FC3F2003F0EEFC88
:102830002A2003F0F1FC002003F0E8FC002003F064
:10284000E5FC002003F0E2FCEF2003F0DFFC1120A8
:1028500003F0E2FC782003F0F5FF292003F0DCFC14
:1028600003F01DB9FE48808846F6040188427CD1F9
:10287000112003F0D1FC142003F0E4FFD02003F07A
:10288000CBFC072003F0C2FC422003F0BFFC1D205C
:1028900003F0BCFCD12003F0BFFC002003F0B6FC29
:1028A0001A2003F0B3FC092003F0B0FCD22003F09F
:1028B000B3FC012003F0AAFC222003F0A7FCC020F7
:1028C00003F0AAFC102003F0A1FC3B2003F09EFCC7
:1028D000002003F09BFC022003F098FC112003F081
:1028E00095FCC52003F098FC032003F08FFCC82062
:1028F00003F092FC002003F089FC252003F086FC05
:10290000212003F083FC052003F080FC002003F06D
:102910007DFC0A2003F07AFC652003F077FC25207B
:1029200003F074FC772003F071FC502003F06EFC80
:102930000F2003F06BFC002003F068FCF82003F08C
:102940006BFC012003F062FCFE2003F065FC00201C
:1029500003F05CFC022003F059FC202003F05CFC37
:10296000362003F059FC082000E02CE003F04EFC78
:102970003A2003F051FC552003F048FC2B2003F0D3
:102980004BFC002003F042FC002003F03FFC012040
:1029900003F03CFC3F2003F039FC2A2003F03CFC10
:1029A000002003F033FC002003F030FC012003F092
:1029B0002DFCDF2003F02AFC782003F043FF2920C0
:1029C00003F02AFC4CE7A648808845F21031884283
:1029D00040F07C87ED2003F01FFC012003F016FC83
:1029E000FE2003F013FCEE2003F016FCDE2003F0C3
:1029F0000DFC212003F00AFCF12003F00DFC012066
:102A000003F004FCDF2003F007FC102003F0FEFBC2
:102A1000C42003F001FC8F2003F0F8FBC62003F074
:102A2000FBFB002003F0F2FBE22003F0EFFBE220CF
:102A300003F0ECFBE22003F0E9FBBF2003F0ECFB2A
:102A4000AA2003F0E3FBB02003F0E6FB0D2003F027
:102A5000DDFB002003F0DAFB0D2003F0D7FB0020A4
:102A600003F0D4FB112003F0D1FB002003F0CEFBD8
:102A7000192003F0CBFB002003F0C8FB212003F05A
:102A8000C5FB002003F0C2FB2D2003F0BFFB00209C
:102A900003F0BCFB3D2003F0B9FB002003F0B6FBC4
:102AA0005D2003F0B3FB002003F0B0FB5D2003F0DA
:102AB000ADFB002003F0AAFBB12003F0ADFB8020AA
:102AC00003F0A4FB002003F0A1FB8B2003F09EFB8E
:102AD000002003F09BFB962003F098FB002003F0FE
:102AE00095FBB22003F098FB002003F08FFB002041
:102AF00003F08CFB022003F089FB002003F086FB2F
:102B0000032003F083FB002003F080FBB32003F0DD
:102B100083FB002003F07AFB002003F077FB00200A
:102B200003F074FB002003F071FB002003F06EFB48
:102B3000002003F06BFB002003F068FB002003F093
:102B400065FB002003F062FB002003F05FFB002028
:102B500003F05CFB002003F059FB002003F056FB60
:102B6000002003F053FB002003F050FB002003F093
:102B70004DFB002003F04AFB002003F047FB002040
:102B800003F044FB002003F041FB002003F03EFB78
:102B9000002003F03BFB002003F038FB002003F093
:102BA00035FBB42003F038FB8B2003F02FFB002013
:102BB00003F02CFB962003F029FB002003F026FBFA
:102BC000A12003F023FB002003F020FBB52003F03D
:102BD00023FB022003F01AFB002003F017FB032065
:102BE00003F014FB002003F011FB042003F00EFBA4
:102BF000002003F00BFBB62003F00EFB002003F0D7
:102C000005FB002003F002FBB72003F005FB0020CA
:102C100003F0FCFA002003F0F9FA3F2003F0F6FA83
:102C2000002003F0F3FA5E2003F0F0FA002003F036
:102C3000EDFA642003F0EAFA002003F0E7FA8C20B2
:102C400003F0E4FA002003F0E1FAAC2003F0DEFA2E
:102C5000002003F0DBFADC2003F0D8FA002001E0CA
:102C60001444002003F0D2FA702003F0CFFA0020C1
:102C700003F0CCFA902003F0C9FA002003F0C6FA62
:102C8000EB2003F0C3FA002003F0C0FADC2003F0CD
:102C9000BDFA002003F0BAFAB82003F0BDFA002014
:102CA00003F0B4FA002003F0B1FA002003F0AEFA0A
:102CB000002003F0ABFA002003F0A8FA002003F094
:102CC000A5FA002003F0A2FA002003F09FFABA2030
:102CD00003F0A2FA242003F099FA002003F096FAF8
:102CE000002003F093FA002003F090FAC12003F0D3
:102CF00093FA202003F08AFA002003F087FA542088
:102D000003F084FA002003F081FAFF2003F07EFA3A
:102D1000002003F07BFAC22003F07EFA0A2003F0C1
:102D200075FA002003F072FA042003F06FFA002015
:102D300003F06CFAC32003F06FFA3C2003F066FA4C
:102D4000002003F063FA3A2003F060FA002003F059
:102D50005DFA392003F05AFA002003F057FA3720C1
:102D600003F054FA002003F051FA3C2003F04EFA2D
:102D7000002003F04BFA362003F048FA002003F05D
:102D800045FA322003F042FA002003F03FFA2F20E8
:102D900003F03CFA002003F039FA2C2003F036FA55
:102DA000002003F033FA292003F030FA002003F06A
:102DB0002DFA262003F02AFA002003F027FA242017
:102DC00003F024FA002003F021FA242003F01EFA75
:102DD000002003F01BFA232003F018FA002003F070
:102DE00015FA3C2003F012FA002003F00FFA362007
:102DF00003F00CFA002003F009FA322003F006FA7F
:102E0000002003F003FA2F2003F000FA002003F063
:102E1000FDF92C2003F0FAF9002003F0F7F929203E
:102E200003F0F4F9002003F0F1F9262003F0EEF9A5
:102E3000002003F0EBF9242003F0E8F9002003F070
:102E4000E5F9242003F0E2F9002003F0DFF9232064
:102E500003F0DCF9002003F0D9F9C42003F0DCF919
:102E6000622003F0D3F9002003F0D0F9052003F02D
:102E7000CDF9002003F0CAF9842003F0C7F900203F
:102E800003F0C4F9F02003F0C1F9002003F0BEF90B
:102E9000182003F0BBF9002003F0B8F9A42003F0D8
:102EA000B5F9002003F0B2F9182003F0AFF90020C3
:102EB00003F0ACF9502003F0A9F9002003F0A6F9C3
:102EC0000C2003F0A3F9002003F0A0F9172003F071
:102ED0009DF9002003F09AF9952003F097F900205E
:102EE00003F094F9F32003F091F9002003F08EF938
:102EF000E62003F08BF9002003F088F9C52003F0E9
:102F00008BF9322003F082F9002003F07FF944208E
:102F100003F07CF9002003F079F9652003F076F9DD
:102F2000002003F073F9762003F070F9002003F01D
:102F30006DF9882003F06AF9002003F067F9C620D4
:102F400003F06AF9202003F061F9002003F05EF934
:102F5000172003F05BF9002003F058F9012003F07B
:102F600055F9002003F052F9C72003F055F900206D
:102F700003F04CF9002003F049F9002003F046F972
:102F8000002003F043F9C82003F046F9002003F0C5
:102F90003DF9002003F03AF9002003F037F9002052
:102FA00003F034F9C92003F037F9002003F02EF9BB
:102FB000002003F02BF9002003F028F9002003F093
:102FC00025F9002003F022F9002003F01FF900206A
:102FD00003F01CF9002003F019F9002003F016F9A2
:102FE000002003F013F9002003F010F9002003F093
:102FF0000DF9002003F00AF9002003F007F9002082
:1030000003F004F9002003F001F9E02003F004F9D3
:10301000162003F0FBF8002003F0F8F81C2003F062
:10302000F5F8002003F0F2F8212003F0EFF800207B
:1030300003F0ECF8362003F0E9F8002003F0E6F89E
:10304000462003F0E3F8002003F0E0F8522003F0FC
:10305000DDF8002003F0DAF8642003F0D7F8002050
:1030600003F0D4F87A2003F0D1F8002003F0CEF872
:103070008B2003F0CBF8002003F0C8F8992003F070
:10308000C5F8002003F0C2F8A82003F0BFF8002024
:1030900003F0BCF8B92003F0B9F8002003F0B6F84B
:1030A000C42003F0B3F8002003F0B0F8CA2003F006
:1030B000ADF8002003F0AAF8D22003F0A7F8002012
:1030C00003F0A4F8D92003F0A1F8002003F09EF843
:1030D000E02003F09BF8002003F098F8F32003F0C1
:1030E00095F8002003F092F8E12003F095F81620FF
:1030F00003F08CF8002003F089F81C2003F086F818
:10310000002003F083F8222003F080F8002003F071
:103110007DF8362003F07AF8002003F077F8452098
:1031200003F074F8002003F071F8522003F06EF8F9
:10313000002003F06BF8642003F068F8002003F02F
:1031400065F87A2003F062F8002003F05FF88B2026
:1031500003F05CF8002003F059F8992003F056F8CA
:10316000002003F053F8A82003F050F8002003F0EB
:103170004DF8B92003F04AF8002003F047F8C420C6
:1031800003F044F8002003F041F8CA2003F03EF8B1
:10319000002003F03BF8D22003F038F8002003F0C1
:1031A00035F8D82003F032F8002003F02FF8E020A3
:1031B00003F02CF8002003F029F8F32003F026F8A0
:1031C000002003F023F8E22003F026F8052003F0A6
:1031D0001DF8002003F01AF80B2003F017F8002068
:1031E00003F014F81B2003F011F8002003F00EF890
:1031F000342003F00BF8002003F008F8442003F01B
:1032000005F8002003F002F84F2002F0FFFF002035
:1032100002F0FCFF612002F0F9FF002002F0F6FF4F
:10322000792002F0F3FF002002F0F0FF882002F086
:10323000EDFF002002F0EAFF972002F0E7FF0020F8
:1032400002F0E4FFA62002F0E1FF002002F0DEFF22
:10325000B72002F0DBFF002002F0D8FFC22002F00E
:10326000D5FF002002F0D2FFC72002F0CFFF0020E0
:1032700002F0CCFFD12002F0C9FF002002F0C6FF0F
:10328000D62002F0C3FF002002F0C0FFDD2002F0D4
:10329000BDFF002002F0BAFFF32002F0B7FF0020CC
:1032A00002F0B4FFE32002F0B7FF052002F0AEFF0A
:1032B000002002F0ABFF0A2002F0A8FF002002F07D
:1032C000A5FF1C2002F0A2FF002002F09FFF332088
:1032D00002F09CFF002002F099FF442002F096FFCC
:1032E000002002F093FF502002F090FF002002F037
:1032F0008DFF622002F08AFF002002F087FF782015
:1033000002F084FF002002F081FF882002F07EFF9F
:10331000002002F07BFF972002F078FF002002F0EF
:1033200075FFA62002F072FF002002F06FFFB720A9
:1033300002F06CFF002002F069FFC22002F066FF7D
:10334000002002F063FFC72002F060FF002002F0BF
:103350005DFFD12002F05AFF002002F057FFD52078
:1033600002F054FF002002F051FFDD2002F04EFF7A
:10337000002002F04BFFF32002F048FF002002F093
:1033800045FFE42002F048FF012002F03FFF00204B
:1033900002F03CFF012002F039FF002002F036FF6E
:1033A000022002F033FF002002F030FF2A2002F05A
:1033B0002DFF002002F02AFF3C2002F027FF002012
:1033C00002F024FF4B2002F021FF002002F01EFF3C
:1033D0005D2002F01BFF002002F018FF742002F0B5
:1033E00015FF002002F012FF842002F00FFF0020E2
:1033F00002F00CFF932002F009FF002002F006FF0C
:10340000A22002F003FF002002F000FFB32002F030
:10341000FDFE002002F0FAFEBE2002F0F7FE0020C2
:1034200002F0F4FEC42002F0F1FE002002F0EEFEF5
:10343000CD2002F0EBFE002002F0E8FED32002F0E7
:10344000E5FE002002F0E2FEDD2002F0DFFE0020BB
:1034500002F0DCFEF32002F0D9FE002002F0D6FEDE
:10346000E52002F0D9FE002002F0D0FE002002F09C
:10347000CDFE002002F0CAFE002002F0C7FE0220AE
:1034800002F0C4FE002002F0C1FE292002F0BEFEC0
:10349000002002F0BBFE3C2002F0B8FE002002F04B
:1034A000B5FE4B2002F0B2FE002002F0AFFE5D2020
:1034B00002F0ACFE002002F0A9FE742002F0A6FE8D
:1034C000002002F0A3FE842002F0A0FE002002F003
:1034D0009DFE932002F09AFE002002F097FEA220AB
:1034E00002F094FE002002F091FEB32002F08EFE66
:1034F000002002F08BFEBE2002F088FE002002F0C9
:1035000085FEC42002F082FE002002F07FFECD2066
:1035100002F07CFE002002F079FED32002F076FE5D
:10352000002002F073FEDC2002F070FE002002F0AA
:103530006DFEF32002F06AFE002002F067FEE62036
:1035400002F06AFE112002F061FE002002F05EFE31
:10355000342002F05BFE002002F058FE562002F0FC
:1035600055FE002002F052FE762002F04FFE0020B1
:1035700002F04CFE772002F049FE002002F046FEE9
:10358000662002F043FE002002F040FE882002F098
:103590003DFE002002F03AFE992002F037FE0020A6
:1035A00002F034FEBB2002F031FE002002F02EFEBD
:1035B000992002F02BFE002002F028FE662002F087
:1035C00025FE002002F022FE552002F01FFE002002
:1035D00002F01CFE552002F019FE002002F016FE3B
:1035E000452002F013FE002002F010FE432002F0FE
:1035F0000DFE002002F00AFE442002F007FE00202B
:1036000002F004FEE72002F007FE322002F0FEFD89
:10361000002002F0FBFD552002F0F8FD002002F032
:10362000F5FD762002F0F2FD002002F0EFFD6620AD
:1036300002F0ECFD002002F0E9FD672002F0E6FD5B
:10364000002002F0E3FD672002F0E0FD002002F020
:10365000DDFD872002F0DAFD002002F0D7FD992081
:1036600002F0D4FD002002F0D1FDBB2002F0CEFD1F
:10367000002002F0CBFD992002F0C8FD002002F0EE
:10368000C5FD772002F0C2FD002002F0BFFD4420FE
:1036900002F0BCFD002002F0B9FD562002F0B6FD9C
:1036A000002002F0B3FD232002F0B0FD002002F064
:1036B000ADFD332002F0AAFD002002F0A7FD452059
:1036C00002F0A4FD002002F0A1FDE82002F0A4FD1C
:1036D000002002F09BFD002002F098FD992002F0EE
:1036E00095FD002002F092FD872002F08FFD002062
:1036F00002F08CFD882002F089FD002002F086FD9A
:10370000772002F083FD002002F080FD662002F0A9
:103710007DFD002002F07AFD882002F077FD002078
:1037200002F074FDAA2002F071FD002002F06EFD8F
:10373000BB2002F06BFD002002F068FD992002F032
:1037400065FD002002F062FD662002F05FFD0020B2
:1037500002F05CFD552002F059FD002002F056FDFC
:10376000552002F053FD002002F050FD442002F0ED
:103770004DFD002002F04AFD442002F047FD0020EC
:1037800002F044FD552002F041FD002002F03EFD14
:10379000E92002F041FDAA2002F038FD002002F0ED
:1037A00035FD002002F032FD002002F02FFD002048
:1037B00002F032FDAA2002F029FDCF2002F02CFDFC
:1037C000002002F023FD002002F020FD002002F086
:1037D0001DFD002002F01AFD002002F017FD002060
:1037E00002F014FD002002F011FD002002F00EFD99
:1037F000002002F00BFD002002F008FD002002F086
:1038000005FD002002F002FD002002F0FFFC002078
:1038100002F0FCFC002002F0F9FC002002F0F6FCB3
:10382000002002F0F3FCF02002F0F6FC002002F091
:10383000EDFC502002F0EAFC002002F0E7FC002042
:1038400002F0E4FC002002F0E1FCF32002F0E4FCD2
:10385000002002F0DBFCF92002F0DEFC062002F082
:10386000D5FC102002F0D2FC292002F0CFFC002071
:1038700002F0CCFC3A2002F0CFFC552002F0C6FC4E
:10388000112002F0C9FC642002F0DCFF292002F0C4
:10389000C3FC352002F0C0FC002002F0B7FC512030
:1038A00002F0BAFCFF2002F0B1FC532002F0B4FC9D
:1038B0002C2002F0ABFC552002F0AEFC822002F07E
:1038C000A5FC2C2002F0A8FC02F0E9B8FE48808894
:1038D00045F2105188427DD155214FF4704002F0DD
:1038E000ABFCAA214FF2010002F0A6FC52214FF2DC
:1038F000020002F0A1FC08214FF2030002F09CFC40
:1039000001214FF2040002F097FC0D214FF43040EA
:1039100002F092FC0D214BF2010002F08DFC0D2112
:103920004BF2020002F088FC34214FF4364002F0E2
:1039300083FC34214BF2016002F07EFC34214BF217
:10394000026002F079FC0D214FF4314002F074FC6A
:103950000D214BF2011002F06FFC0D214BF2021011
:1039600002F06AFC34214FF4374002F065FC342148
:103970004BF2017002F060FC34214BF2027002F055
:103980005BFC00214FF4324002F056FC00214BF268
:10399000012002F051FC00214BF2022002F04CFC0D
:1039A00024214FF4384002F047FC24214BF601005B
:1039B00002F042FC24214BF6020002F03DFC012102
:1039C0004FF43F4002F038FC0F214FF4334002F037
:1039D00033FC00E0FDE30F214BF2013002F02CFC40
:1039E0000F214BF2023002F027FC34214FF4394012
:1039F00002F022FC34214BF6011002F01DFC3421B0
:103A00004BF6021002F018FC08214FF4354002F08A
:103A100013FC08214BF2015002F00EFC08214BF27E
:103A2000025002F009FC03214FF4424002F004FC72
:103A300024214FF43A4002F0FFFB24214BF60120F1
:103A400002F0FAFB24214BF6022002F0F5FB0021E4
:103A50004FF43C4002F0F0FB78214BF6014002F0BD
:103A6000EBFB00214BF6024002F0E6FB00214FF495
:103A70003D4002F0E1FB78214BF6015002F0DCFB07
:103A800000214BF6025002F0D7FB00214FF43E40DC
:103A900002F0D2FB64214BF6016002F0CDFB002165
:103AA0004FF4514002F0C8FB33214DF2011002F0F7
:103AB000C3FB00214DF2021002F0BEFB34214DF297
:103AC000031002F0B9FB00214DF2041002F0B4FB28
:103AD0003A214DF2051002F0AFFB00214DF2061025
:103AE00002F0AAFB4A214DF2071002F0A5FB0021CB
:103AF0004DF2081002F0A0FB5C214DF2091002F01B
:103B00009BFB00214DF20A1002F096FB81214DF241
:103B10000B1002F091FB00214DF20C1002F08CFB17
:103B2000A6214DF20D1002F087FB00214DF20E1080
:103B300002F082FBE5214DF20F1002F07DFB012126
:103B40004DF2101002F078FB13214DF2111002F02B
:103B500073FB01214DF2121002F06EFB54214DF265
:103B6000131002F069FB01214DF2141002F064FB06
:103B700082214DF2151002F05FFB01214DF216106B
:103B800002F05AFBCA214DF2171002F055FB022138
:103B90004DF2181002F050FB00214DF2191002F006
:103BA0004BFB02214DF21A1002F046FB01214DF2AF
:103BB0001B1002F041FB02214DF21C1002F03CFBF5
:103BC00034214DF21D1002F037FB02214DF21E1080
:103BD00002F032FB67214DF21F1002F02DFB022193
:103BE0004DF2201002F028FB84214DF2211002F04A
:103BF00023FB02214DF2221002F01EFBA4214DF204
:103C0000231002F019FB02214DF2241002F014FBE4
:103C1000B7214DF2251002F00FFB02214DF22610C4
:103C200002F00AFBCF214DF2271002F005FB022122
:103C30004DF2281002F000FBDE214DF2291002F0B7
:103C4000FBFA02214DF22A1002F0F6FAF2214DF2AF
:103C50002B1002F0F1FA02214DF22C1002F0ECFAD6
:103C6000FE214DF22D1002F0E7FA03214DF22E1045
:103C700002F0E2FA10214DF22F1002F0DDFA0321DA
:103C80004DF2301002F0D8FA33214DF2311002F02B
:103C9000D3FA03214DF2321002F0CEFA6D214DF22B
:103CA000331002F0C9FA00214FF4524002F0C4FA76
:103CB00033214DF2012002F0BFFA00214DF2022023
:103CC00002F0BAFA342101E0144400204DF203203E
:103CD00002F0B2FA00214DF2042002F0ADFA3A21CE
:103CE0004DF2052002F0A8FA00214DF2062002F064
:103CF000A3FA4A214DF2072002F09EFA00214DF26C
:103D0000082002F099FA5C214DF2092002F094FAA1
:103D100000214DF20A2002F08FFA81214DF20B2092
:103D200002F08AFA00214DF20C2002F085FAA62159
:103D30004DF20D2002F080FA00214DF20E2002F02B
:103D40007BFAE5214DF20F2002F076FA01214DF2C7
:103D5000102002F071FA13214DF2112002F06CFADA
:103D600001214DF2122002F067FA54214DF2132086
:103D700002F062FA01214DF2142002F05DFA822174
:103D80004DF2152002F058FA01214DF2162002F0F2
:103D900053FACA214DF2172002F04EFA02214DF2D9
:103DA000182002F049FA00214DF2192002F044FADD
:103DB00002214DF21A2002F03FFA01214DF21B20A0
:103DC00002F03AFA02214DF21C2002F035FA3421B9
:103DD0004DF21D2002F030FA02214DF21E2002F0B9
:103DE0002BFA67214DF21F2002F026FA02214DF234
:103DF000202002F021FA84214DF2212002F01CFA49
:103E000002214DF2222002F017FAA4214DF22320C4
:103E100002F012FA02214DF2242002F00DFAB7212D
:103E20004DF2252002F008FA02214DF2262002F080
:103E300003FACF214DF2272002F0FEF902214DF2C4
:103E4000282002F0F9F9DE214DF2292002F0F4F9E0
:103E500002214DF22A2002F0EFF9F2214DF22B203F
:103E600002F0EAF902214DF22C2002F0E5F9FE21E0
:103E70004DF22D2002F0E0F903214DF22E2002F048
:103E8000DBF910214DF22F2002F0D6F903214DF27B
:103E9000302002F0D1F933214DF2312002F0CCF97B
:103EA00003214DF2322002F0C7F96D214DF233208B
:103EB00002F0C2F900214FF4534002F0BDF9332162
:103EC0004DF2013002F0B8F900214DF2023002F05B
:103ED000B3F934214DF2033002F0AEF900214DF276
:103EE000043002F0A9F93A214DF2053002F0A4F9AC
:103EF00000214DF2063002F09FF94A214DF20730C1
:103F000002F09AF900214DF2083002F095F95C2197
:103F10004DF2093002F090F900214DF20A3002F022
:103F20008BF981214DF20B3002F086F900214DF220
:103F30000C3002F081F9A6214DF20D3002F07CF92F
:103F400000214DF20E3002F077F9E5214DF20F30ED
:103F500002F072F901214DF2103002F06DF91321D7
:103F60004DF2113002F068F901214DF2123002F0E9
:103F700063F954214DF2133002F05EF901214DF244
:103F8000143002F059F982214DF2153002F054F943
:103F900001214DF2163002F04FF9CA214DF21730CF
:103FA00002F04AF902214DF2183002F045F90021E1
:103FB0004DF2193002F040F902214DF21A3002F0B0
:103FC0003BF901214DF21B3002F036F902214DF28E
:103FD0001C3002F031F934214DF21D3002F02CF981
:103FE00002214DF21E3002F027F967214DF21F30F9
:103FF00002F022F902214DF2203002F01DF9842155
:104000004DF2213002F018F902214DF2223002F077
:1040100013F9A4214DF2233002F00EF902214DF2E2
:10402000243002F009F9B7214DF2253002F004F9ED
:1040300002214DF2263002F0FFF8CF214DF2273059
:1040400002F0FAF802214DF2283002F0F5F8DE21F4
:104050004DF2293002F0F0F802214DF22A3002F040
:10406000EBF8F2214DF22B3002F0E6F802214DF28E
:104070002C3002F0E1F8FE214DF22D3002F0DCF898
:1040800003214DF22E3002F0D7F810214DF22F30DF
:1040900002F0D2F803214DF2303002F0CDF8332196
:1040A0004DF2313002F0C8F803214DF2323002F007
:1040B000C3F86D214DF2333002F0BEF800214FF409
:1040C000544002F0B9F833214DF2014002F0B4F847
:1040D00000214DF2024002F0AFF834214DF20340CE
:1040E00002F0AAF800214DF2044002F0A5F83A21AE
:1040F0004DF2054002F0A0F800214DF2064002F01A
:104100009BF84A214DF2074002F096F800214DF24B
:10411000084002F091F85C214DF2094002F08CF861
:1041200000214DF20A4002F087F881214DF20B4048
:1041300002F082F800214DF20C4002F07DF8A62139
:104140004DF20D4002F078F800214DF20E4002F0E1
:1041500073F8E5214DF20F4002F06EF801214DF2A7
:10416000104002F069F813214DF2114002F064F89A
:1041700001214DF2124002F05FF854214DF213403C
:1041800002F05AF801214DF2144002F055F8822154
:104190004DF2154002F050F801214DF2164002F0A8
:1041A0004BF8CA214DF2174002F046F802214DF2B9
:1041B000184002F041F800214DF2194002F03CF89D
:1041C00002214DF21A4002F037F801214DF21B4056
:1041D00000E006E302F030F802214DF21C4002F04C
:1041E0002BF834214DF21D4002F026F802214DF249
:1041F0001E4002F021F867214DF21F4002F01CF82A
:1042000002214DF2204002F017F884214DF22140A6
:1042100002F012F802214DF2224002F00DF8A42122
:104220004DF2234002F008F802214DF2244002F042
:1042300003F8B7214DF2254001F0FEFF02214DF2B7
:10424000264001F0F9FFCF214DF2274001F0F4FFA5
:1042500002214DF2284001F0EFFFDE214DF229400E
:1042600001F0EAFF02214DF22A4001F0E5FFF221C0
:104270004DF22B4001F0E0FF02214DF22C4001F005
:10428000DBFFFE214DF22D4001F0D6FF03214DF260
:104290002E4001F0D1FF10214DF22F4001F0CCFF54
:1042A00003214DF2304001F0C7FF33214DF2314080
:1042B00001F0C2FF03214DF2324001F0BDFF6D213C
:1042C0004DF2334001F0B8FF00214FF4554001F0AA
:1042D000B3FF33214DF2015001F0AEFF00214DF24A
:1042E000025001F0A9FF34214DF2035001F0A4FF68
:1042F00000214DF2045001F09FFF3A214DF205508C
:1043000001F09AFF00214DF2065001F095FF4A217D
:104310004DF2075001F090FF00214DF2085001F0DE
:104320008BFF5C214DF2095001F086FF00214DF218
:104330000A5001F081FF81214DF20B5001F07CFF0A
:1043400000214DF20C5001F077FFA6214DF20D50E7
:1043500001F072FF00214DF20E5001F06DFFE521DA
:104360004DF20F5001F068FF01214DF2105001F0A5
:1043700063FF13214DF2115001F05EFF01214DF258
:10438000125001F059FF54214DF2135001F054FF27
:1043900001214DF2145001F04FFF82214DF21550D2
:1043A00001F04AFF01214DF2165001F045FFCA21EC
:1043B0004DF2175001F040FF02214DF2185001F06C
:1043C0003BFF00214DF2195001F036FF02214DF262
:1043D0001A5001F031FF01214DF21B5001F02CFF6A
:1043E00002214DF21C5001F027FF34214DF21D50E7
:1043F00001F022FF02214DF21E5001F01DFF672146
:104400004DF21F5001F018FF02214DF2205001F033
:1044100013FF84214DF2215001F00EFF02214DF2D5
:10442000225001F009FFA4214DF2235001F004FFB6
:1044300002214DF2245001F0FFFEB7214DF225502C
:1044400001F0FAFE02214DF2265001F0F5FECF21D7
:104450004DF2275001F0F0FE02214DF2285001F0FC
:10446000EBFEDE214DF2295001F0E6FE02214DF275
:104470002A5001F0E1FEF2214DF22B5001F0DCFE5A
:1044800002214DF22C5001F0D7FEFE214DF22D50AD
:1044900001F0D2FE03214DF22E5001F0CDFE10218D
:1044A0004DF22F5001F0C8FE03214DF2305001F0C3
:1044B000C3FE33214DF2315001F0BEFE03214DF217
:1044C000325001F0B9FE6D214DF2335001F0B4FECF
:1044D00000214FF4564001F0AFFE33214DF2016050
:1044E00001F0AAFE00214DF2026001F0A5FE342188
:1044F0004DF2036001F0A0FE00214DF2046001F0D6
:104500009BFE3A214DF2056001F096FE00214DF22E
:10451000066001F091FE4A214DF2076001F08CFE29
:1045200000214DF2086001F087FE5C214DF2096028
:1045300001F082FE00214DF20A6001F07DFE812132
:104540004DF20B6001F078FE00214DF20C6001F09D
:1045500073FEA6214DF20D6001F06EFE00214DF2BA
:104560000E6001F069FEE5214DF20F6001F064FE7E
:1045700001214DF2106001F05FFE13214DF2116038
:1045800001F05AFE01214DF2126001F055FE542156
:104590004DF2136001F050FE01214DF2146001F064
:1045A0004BFE82214DF2156001F046FE01214DF2D5
:1045B000166001F041FECA214DF2176001F03CFE89
:1045C00002214DF2186001F037FE00214DF2196012
:1045D00001F032FE02214DF21A6001F02DFE0121A0
:1045E0004DF21B6001F028FE02214DF21C6001F02B
:1045F00023FE34214DF21D6001F01EFE02214DF21A
:104600001E6001F019FE67214DF21F6001F014FEDB
:1046100002214DF2206001F00FFE84214DF2216055
:1046200001F00AFE02214DF2226001F005FEA421F4
:104630004DF2236001F000FE02214DF2246001F0F2
:10464000FBFDB7214DF2256001F0F6FD02214DF290
:10465000266001F0F1FDCF214DF2276001F0ECFD65
:1046600002214DF2286001F0E7FDDE214DF22960C4
:1046700001F0E2FD02214DF22A6001F0DDFDF221A0
:104680004DF22B6001F0D8FD02214DF22C6001F0BB
:10469000D3FDFE214DF22D6001F0CEFD03214DF240
:1046A0002E6001F0C9FD10214DF22F6001F0C4FD14
:1046B00003214DF2306001F0BFFD33214DF2316036
:1046C00001F0BAFD03214DF2326001F0B5FD6D211C
:1046D0004DF2336001F0B0FD55214FF4704001F010
:1046E000ABFDAA214FF2010001F0A6FD52214FF2CD
:1046F000020001F0A1FD08214FF2030001F09CFD32
:1047000000214FF2040001F097FDCC214FF431401D
:1047100001F092FD00214BF2011001F08DFD052109
:104720004FF4364001F088FD70214FF4374001F01E
:1047300083FD70214BF2017001F07EFD01214FF4E9
:10474000384001F079FD03214BF6010001F074FDC2
:1047500003214BF6020001F06FFD03214BF603002D
:1047600001F06AFD02214FF43C4001F065FD00219B
:104770004BF6014001F060FD00214BF6024001F0D4
:104780005BFDD0214FF4494001F056FD02214CF66B
:10479000011001F051FD50214CF6021001F04CFDCA
:1047A00050214CF6031001F047FD50214CF6041047
:1047B00001F042FD00214FF4545001F03DFD552120
:1047C0004FF4685001F038FD4FF4885001F024FD9B
:1047D000782002F055F84FF4245001F01DFD01F04F
:1047E0005EB9FE48808849F2253188427ED147F67D
:1047F000F001E52001F020FD4FF48071012001F06F
:104800001BFD4FF4E061022001F016FD41F2300182
:10481000032001F011FD0021042001F00DFD40F204
:104820000221082001F008FD0021092001F004FD0B
:1048300000210A2001F000FD00210C2001F0FCFC09
:1048400000210D2001F0F8FC00210F2001F0F4FC04
:104850000021102001F0F0FC0721112001F0ECFCF8
:104860000021122001F0E8FC0021132001F0E4FCFB
:104870000021072001F0E0FC41F29061102001F0DE
:10488000DBFC40F22721112001F0D6FC9D211220F3
:1048900001F0D2FC4FF4C851132001F0CDFC2521CA
:1048A000292001F0C9FC0D212B2001F0C5FC0721B6
:1048B000302001F0C1FC40F20331312001F0BCFC9A
:1048C0000321322001F0B8FC40F20621352001F02E
:1048D000B3FC0821362001F0AFFC40F2064137203E
:1048E00001F0AAFC4FF44171382000E057E001F0DC
:1048F000A3FC0721392001F09FFC40F202613C201B
:1049000001F09AFC08213D2001F096FC0021502086
:1049100001F092FCEF21512001F08EFC0021522089
:1049200001F08AFC40F23F11532001F085FC4FF466
:104930002741602001F080FC0121612001F07CFC16
:1049400000216A2001F078FC0021802001F074FC35
:104950000021812001F070FC0021822001F06CFC1C
:104960000021832001F068FC0021842001F064FC18
:104970000021852001F060FC1021902001F05CFCFA
:104980004FF4C061922001F057FC40F23311072030
:1049900001F052FC2221002001F04EFC1FE78F485D
:1049A000808849F2283188427ED141F28F01EC2083
:1049B00001F042FC41F23421EF2001F03DFC4FF4C4
:1049C0008071012001F038FC4FF4E061022001F019
:1049D00033FC41F23001032001F02EFC00210420C1
:1049E00001F02AFC40F20221082001F025FC002100
:1049F000092001F021FC00210A2001F01DFC012109
:104A00000C2001F019FC00210D2001F015FC002103
:104A10000F2001F011FC0021102001F00DFC0721F6
:104A2000112001F009FC0021122001F005FC0021F9
:104A3000132001F001FC0121072001F0FDFB3220D1
:104A400001F000FF41F29041102001F0F5FB40F22F
:104A50002721112001F0F0FB322001F0F3FE8A2122
:104A6000122001F0E9FB322001F0ECFE4FF4D051AE
:104A7000132001F0E1FB0621292001F0DDFB0D21CF
:104A80002B2001F0D9FB322001F0DCFE0021202098
:104A900001F0D2FB0021212001F0CEFB322001F0F9
:104AA000D1FE0021302000E074E001F0C5FB40F2AF
:104AB0000461312001F0C0FB40F20531322001F0E9
:104AC000BBFB0021352001F0B7FB40F60941362041
:104AD00001F0B2FB4FF40171372001F0ADFB40F261
:104AE0000131382001F0A8FB40F20771392001F0B4
:104AF000A3FB00213C2001F09FFB40F60A213D2052
:104B000001F09AFB322001F09DFE0021502001F0BF
:104B100093FBEF21512001F08FFB0021522001F087
:104B20008BFB40F23F11532001F086FB4FF42741ED
:104B3000602001F081FB0121612001F07DFB00215B
:104B40006A2001F079FB0021802001F075FB002133
:104B5000812001F071FB0021822001F06DFB00211A
:104B6000832001F069FB0021842001F065FB002116
:104B7000852001F061FB1021902001F05DFB4FF4D6
:104B8000C061922001F058FB40F23311072001F080
:104B900053FB24E61148808849F2203188427DD1B8
:104BA0000021084601F048FB4FF48071012001F01C
:104BB00043FB4FF4E061022001F03EFB41F2300183
:104BC000032001F039FB0021042001F035FB40F205
:104BD0000221082001F030FB002101E014440020F4
:104BE000092001F029FB00210A2001F025FB012109
:104BF0000C2001F021FB00210D2001F01DFB002104
:104C00000F2001F019FB322001F01CFE40F20111CF
:104C1000072001F011FB322001F014FE4FF4865101
:104C2000102001F009FB0721112001F005FB4FF4D2
:104C30008871122001F000FB4FF43061132001F065
:104C4000FBFA0021292001F0F7FA44F210012B2091
:104C500001F0F2FA0021502001F0EEFAEF2151208C
:104C600001F0EAFA0021522001F0E6FA40F23F1189
:104C7000532001F0E1FA4FF41C51602001F0DCFAFE
:104C80000121612001F0D8FA00216A2001F0D4FA54
:104C90000021802001F0D0FA002100E031E08120E5
:104CA00001F0CAFA0021822001F0C6FA0021832017
:104CB00001F0C2FA0021842001F0BEFA0021852013
:104CC00001F0BAFA1021902001F0B6FA00219220EA
:104CD00001F0B2FA0121932001F0AEFA4FF488718D
:104CE000952001F0A9FA0021972001F0A5FA0021F2
:104CF000982001F0A1FA40F27311072001F09CFA0C
:104D00006DE5FE48808849F2313188427DD141F21B
:104D10001401E72001F090FA4FF48071012001F0B6
:104D20008BFA4FF40071022001F086FA41F238014B
:104D3000032001F081FA40F20221082001F07CFA00
:104D40000021092001F078FA00210A2001F074FA0C
:104D500000210C2001F070FA00210D2001F06CFA06
:104D600000210F2001F068FA0021102001F064FA00
:104D70000721112001F060FA0021122001F05CFAF5
:104D80000021132001F058FAC82001F05BFD41F228
:104D90009061102001F050FA40F22721112001F01B
:104DA0004BFA322001F04EFD0C21122001F044FAA2
:104DB000322001F047FD4FF40061132001F03CFA6E
:104DC0001121292001F038FA0B212B2001F034FAAF
:104DD000322001F037FD0021202001F02DFA40F2B1
:104DE0003F11212001F028FA0021302001F024FA9F
:104DF0004FF48371312001F01FFA0021322001F0BD
:104E00001BFA4FF40171352000E064E001F014FA60
:104E100041F20A61362001F00FFA40F207713720A3
:104E200001F00AFA4FF48371382001F005FA40F2DC
:104E30000771392001F000FA40F202413C2001F0F4
:104E4000FBF940F60F413D2001F0F6F9002150201A
:104E500001F0F2F9EF21512001F0EEF9002152208A
:104E600001F0EAF940F23F11532001F0E5F94FF467
:104E70001C51602001F0E0F90121612001F0DCF912
:104E800000216A2001F0D8F90021802001F0D4F936
:104E90000021812001F0D0F90021822001F0CCF91D
:104EA0000021832001F0C8F90021842001F0C4F919
:104EB0000021852001F0C0F91021902001F0BCF9FB
:104EC0004FF4C061922001F0B7F940F2331107208E
:104ED00001F0B2F983E48948808845F208418842AC
:104EE0007ED14FF48071012001F0A6F94FF4E0610A
:104EF000022001F0A1F941F23001032001F09CF9F8
:104F00000021042001F098F940F20721082001F067
:104F100093F90021092001F08FF900210A2001F006
:104F20008BF900210C2001F087F900210D2001F000
:104F300083F900210F2001F07FF9142001F082FC99
:104F400041F2B061102001F077F90121112001F048
:104F500073F90121172001F06FF94FF49C711220B1
:104F600001F06AF94FF40061132001F065F909219D
:104F7000292001F061F909212A2001F05DF90021C1
:104F8000A42001F059F90021502001F055F9EF213A
:104F9000512001F051F90021522001F04DF940F269
:104FA0003F11532001F048F94FF41C51602001F0EB
:104FB00043F90121612001F03FF900216A2001F04D
:104FC0003BF90021802001F037F90021812001F018
:104FD00033F90021822001F02FF90021832000E025
:104FE00023E001F029F90021842001F025F90021B6
:104FF000852001F021F91321902001F01DF90021F5
:10500000922001F019F90321932001F015F94FF4D2
:105010008871952001F010F940F27311072001F01A
:105020000BF9322001F00EFCB8E43448808841F2DC
:10503000055188427ED10021072001F0FDF8322081
:1050400001F000FC4FF48E71122001F0F5F80121FF
:10505000A42001F0F1F80F21082001F0EDF808215B
:105060000A2001F0E9F808210D2001F0E5F840F2EE
:105070000771302001F0E0F80721312001F0DCF861
:1050800040F20361322001F0D7F84FF4E0613320A1
:1050900001F0D2F840F20221342001F0CDF80221D3
:1050A000352001F0C9F841F60F71362001F0C4F83F
:1050B00040F20771372001F0BFF80021382001F0DD
:1050C000BBF80021392001F0B7F840F207713A200F
:1050D00001F0B2F800213B2001F0AEF807213C209E
:1050E00001F0AAF800213D2001F0A6F8322001F0DD
:1050F000A9FB0121072001F09FF801E014440020E2
:105100000121172001F098F8322001F09BFB4FF4A9
:10511000BD51102001F090F840F21721112001F04C
:105120008BF84FF48F71122001F086F84FF4706104
:10513000132000E097E001F07FF800212A2001F021
:105140007BF80A21292001F077F84FF49F71122093
:1051500001F072F80021502001F06EF8EF2151208B
:1051600001F06AF80021522001F066F840F23F1188
:10517000532001F061F84FF41C51602001F05CF8FD
:105180000121612001F058F800216A2001F054F853
:105190000021802001F050F80021812001F04CF81E
:1051A0000021822001F048F80021832001F044F81A
:1051B0000021842001F040F80021852001F03CF816
:1051C0001321902001F038F84FF44071922001F043
:1051D00033F80521932001F02FF80021952001F0EC
:1051E0002BF80021972001F027F80021982001F0EA
:1051F00023F84FF48071012001F01EF84FF4E061B4
:10520000022001F019F841F23801032001F014F8EE
:105210000021042001F010F800210C2001F00CF80E
:1052200000210F2001F008F80021202001F004F8EF
:105230000021212001F000F82121072000F0FCFFCF
:10524000142001F0FFFA6121072000F0F5FF14207F
:1052500001F0F8FA40F27311072000F0EDFF14207E
:1052600001F0F0FA95E4FE4880884BF2055188423F
:105270007ED10021084600F0DFFF0021084600F043
:10528000DBFF0021084600F0D7FF0021084600F0B0
:10529000D3FF0121A42000F0CFFF142001F0D2FAA7
:1052A0004FF41C51602000F0C7FF40F2022108209B
:1052B00000F0C2FF4FF40571302000F0BDFF43F253
:1052C0001571312000F0B8FF40F20461322000F087
:1052D000B3FF40F61661332000F0AEFF42F2112119
:1052E000342000F0A9FF4FF4A851352000F0A4FFAE
:1052F00048F20751362000F09FFF41F20741372066
:1053000000F09AFF41F20341382000F095FF202180
:10531000392000F091FF1A21902000F08DFF00212C
:10532000102000F089FF0721112000F085FF0021E7
:10533000122000F081FF0021132000F07DFF1420D7
:1053400001F080FA4FF4E661102000F075FF40F2A2
:105350003711112000F070FF142001F073FA4FF4A0
:10536000DC71122000F068FF142001F06BFA00E0FD
:1053700083E04FF47061132000F05EFF80212A204B
:1053800000F05AFF4821292000F056FF142001F0B8
:1053900059FA4FF48071012000F04EFF4FF4E061A4
:1053A000022000F049FF41F23801032000F044FFE1
:1053B00040F20221082000F03FFF00210A2000F007
:1053C0003BFF00210C2000F037FF00210D2000F0F2
:1053D00033FF30210E2000F02FFF0021502000F07D
:1053E0002BFFEF21512000F027FF0021522000F079
:1053F00023FF40F23F11532000F01EFF4FF41C51D9
:10540000602000F019FF0121612000F015FF00214C
:105410006A2000F011FF1121902000F00DFF4FF4E1
:10542000C061922000F008FF40F20241932000F09A
:1054300003FF0221942000F0FFFE142001F002FA85
:105440000121072000F0F8FE142001F0FBF9612192
:10545000072000F0F1FE40F27311072000F0ECFE8F
:105460000021202000F0E8FE0021212000F0E4FED1
:105470002221002000F0E0FE11E3794880884CF200
:10548000055188427ED10021084600F0D5FE00215A
:10549000084600F0D1FE142001F0D4F9002108469E
:1054A00000F0CAFE0021084600F0C6FE00210846B2
:1054B00000F0C2FE0021084600F0BEFE0121A4203B
:1054C00000F0BAFE142001F0BDF94FF41C51602029
:1054D00000F0B2FE40F60601082000F0ADFE40F2FA
:1054E0000371302000F0A8FE0121312000F0A4FE5D
:1054F0000421322000F0A0FE4FF48171332000F02F
:105500009BFE4FF44071342000F096FE40F20311F0
:10551000352000F091FE1F21362000F08DFE40F274
:105520000371372000F088FE0121382000F084FE4E
:105530000421392000F080FE1521902000F07CFE2F
:105540004FF48261102000F077FE40F247211120D5
:1055500000F072FE4FF4DE71122000F06DFE4FF489
:105560006061132000F068FE782001F06BF94FF4C1
:105570008071012000F060FE4FF40071022000F005
:105580005BFE00E050E041F23001032000F054FEE9
:1055900008210A2000F050FE00210C2000F04CFEF3
:1055A00020210E2000F048FE00210F2000F044FED4
:1055B0000021202000F040FE0021212000F03CFED0
:1055C0003D212A2000F038FE142001F03BF92D2166
:1055D000292000F031FE0021502000F02DFE4DF278
:1055E000EF01512000F028FE0021522000F024FE9F
:1055F00040F23F11532000F01FFE0021612000F017
:105600001BFE00216A2000F017FE4FF4407192202B
:1056100000F012FE0521932000F00EFE4FF4807181
:10562000072000F009FE3AE20D48808844F231512B
:1056300088427CD10121002000F0FEFD0A2001F00B
:1056400001F941F22861102000F0F6FD0E21122030
:1056500000F0F2FD40F63921132000F0EDFD01E0ED
:10566000144400200A2001F0EDF84021112000F040
:10567000E3FD5021152000F0DFFD0A2001F0E2F8E3
:105680001E21122000F0D8FD0A2001F0DBF84FF4B3
:10569000B151102000F0D0FD42F63921132000F066
:1056A000CBFD0A2001F0CEF84FF48071012000F00C
:1056B000C3FD4FF44071022000F0BEFD41F23801FD
:1056C000032000F0B9FD40F20221082000F0B4FDF3
:1056D00008210A2000F0B0FD0021302000F0ACFDD0
:1056E00040F20241312000F0A7FD4FF483713220D7
:1056F00000F0A2FD40F20351332000F09DFD4FF475
:105700008271342000F098FD40F20131352000F024
:1057100093FD40F20771362000F08EFD40F2053116
:10572000372000F089FD4FF40271382000E040E09E
:1057300000F082FD40F60B71392000F07DFD022162
:10574000412000F079FD4FF41C51602000F074FD01
:105750000121612000F070FD4FF40471902000F0F1
:105760006BFD4FF48571922000F066FD04219320BB
:1057700000F062FD4FF48071A02000F05DFD01217A
:10578000072000F059FD2121072000F055FD2321BD
:10579000072000F051FD3321072000F04DFD40F2BD
:1057A0003311072000F048FD0021A02000F044FD47
:1057B00075E1C048808844F2355188427ED130215D
:1057C000152000F039FD10219A2000F035FD202130
:1057D000112000F031FD43F22841102000F02CFD93
:1057E0000221122000F028FD41F23801132000F0C0
:1057F00023FD282001F026F81221084600F01CFDA8
:10580000282001F01FF843F22041102000F014FD81
:1058100043F23801132000F00FFD462001F012F88A
:105820000021302000F008FD40F20241312000F05C
:1058300003FD40F20731322000F0FEFC4FF44171CD
:10584000332000F0F9FC0421342000F0F5FC40F294
:105850000141352000F0F0FC40F20771362000F0E5
:10586000EBFC40F20531372000F0E6FC4FF4C2615A
:10587000382000F0E1FC4FF4C261392000F0DCFC7C
:105880004FF48071012000F0D7FC4FF440710220EA
:1058900000F0D2FC41F23001032000F0CDFC40F6D4
:1058A0000801082000F0C8FC08210A2000F0C4FC10
:1058B0004FF41C51602000F0BFFC00E031E00121FA
:1058C000612000F0B9FC4FF49F71902000F0B4FC0F
:1058D0004FF48071922000F0AFFC4FF48071932060
:1058E00000F0AAFC4FF44051A02000F0A5FC1021CC
:1058F000A32000F0A1FC0121072000F09DFC212144
:10590000072000F099FC2321072000F095FC3321AB
:10591000072000F091FC40F23311072000F08CFCCE
:10592000BDE06448808841F663118842F8D1E220E6
:1059300000F072FC1D2000F069FC022000F066FC03
:10594000042000F063FC642000F09AFFE02000F0E7
:1059500063FC012000F05AFC0A2000F073FFE020F5
:1059600000F05AFC032000F051FC0C2000F06AFF0C
:10597000012000F051FC0A2000F064FFE62000F056
:105980004BFC2F2000F042FCFF2000F03FFCFF20EA
:1059900000F03CFCB02000F03FFC202000F036FC82
:1059A000002000F033FC032000F030FC40F21F30F8
:1059B00000F02CFC012000F029FC40F2DF1000F088
:1059C00025FC002000F022FCB42000F025FC04207F
:1059D00000F01CFC40F21F4000F018FC002000F01A
:1059E00015FC2E2000F012FC002000F00FFC00201F
:1059F00000F00CFC002000F009FC002000F006FC88
:105A0000B62000F009FC022000F000FC4FF4037007
:105A100000F0FCFB002000F0F9FB172000F0F6FB83
:105A2000152000F0F3FB002000F0F0FB002000F058
:105A3000EDFBF02000F0F0FB032000F0E7FB292055
:105A400000F0EAFBD02000F0E7FB002000F0DEFBD6
:105A5000BE2000F0E1FB052000F0D8FBFE2000F0A6
:105A6000D5FB012000F0D2FB002000F0CFFB00208E
:105A700000F0CCFB002000F0C9FBB82000F0CCFB0C
:105A8000032000F0C3FB012000F0C0FBBA2000F0AF
:105A9000C3FB012000F0BAFB642000F031F80120C4
:105AA000FCF71CFA0120044908604FF6FF70FCF770
:105AB000DFF910BD144400208081214210B5024658
:105AC000012000E050430B1EA1F10104E1B2F9D125
:105AD00010BD000008B5034800880090BDF8000024
